:100609005475726E206F6E0A005475726E206F6693
:10061900660A00636C6561720A006572720A00738A
:0B062900686F774E756D3A25640A007B
:04059B000258000002
:10069F00758921758DFD758BFDD28E758C3C758A94
:0E06AF00B0D2A9C29FD29ED29CD2AFD2AC22B2
:10051000E4F553C2ACD299E556249E6011146018DC
:1005200024027023D28C7BFF7A067909801FC28C4B
:100530007BFF7A0679128015C28CE4F558F5597B59
:10054000FF7A06791C80067BFF7A067923120088E1
:080550003099FDC299D2AC22E2
:10065B00E4F5520559E55970020558C2ACD2997BA5
:10066B00FF7A06792885580BF50C1200883099FD16
:05067B00C299D2AC227F
:1006DB0012069FAF59AE58120558E553B4010312D9
:0C06EB000510E552B401EC12065B80E73C
:03000B000206F7F3
:1006F700C0E0C0D0758C3C758AB00554E554B4147D
:0C07070006755400755201D0D0D0E032CD
:0300230002000ECA
:09000E00C2988599567553013220
:100713007FE87E037D6E7C00ED1D70011CED4C7047
:0A072300F7EF1F70011EEF4E70EAA1
:01072D0022A9
:1006BD00D3EF9400EE940040147D6E7C00ED1D7020
:0D06CD00011CED4C70F7EF1F70E61E80E37E
:0106DA0022FD
:10068000D3EF9400EE94004015E4FDFC0DBD000195
:0E0690000CED641F4C70F5EF1F70E51E80E24C
:01069E002239
:10059F0020202200C000F900A400B00099009200B2
:1005AF008200F8008000900088008300C600A10040
:1005BF0086008E104200FE00FD00FB00F700EF00EA
:0505CF00DF00BF007F0A
:0A05D5008B0E8A0F89108F828E832F
:1005DF007C007D0A1203828C148D15AE83AF827C52
:1005EF00007D0A120382E5148515F01203D7AB11B3
:0A05FF00AA12A913EE8FF00203D731
:10055800E4F508F509F50AF50BF5117512007513A0
:100568000AFB7A0079081205D58543A0E50B25E03A
:100578002422F808E6F5807F0A7E001206BD85452C
:10058800A0E50925E02422F808E6F5807F0A7E0028
:030598000206BD9B
:0300000002048473
:0C048400787FE4F6D8FD7581590204CBA6
:10038200BC000BBE0029EF8DF084FFADF022E4CC5F
:10039200F875F008EF2FFFEE33FEEC33FCEE9DEC28
:1003A200984005FCEE9DFE0FD5F0E9E4CEFD22ED6E
:1003B200F8F5F0EE8420D21CFEADF075F008EF2FB8
:1003C200FFED33FD4007985006D5F0F222C398FDA9
:0503D2000FD5F0EA2246
:1003D700BB010A89828A83F0E5F0A3F0225006F771
:0F03E70009A7F01922BBFE06F3E5F009F319226E
:10002600E517240BF8E60517227808300702780B47
:10003600E475F00112044E0203F62000EB7F2ED287
:10004600008018EF540F2490D43440D4FF30040BB2
:10005600EF24BFB41A0050032461FFE518600215AF
:1000660018051BE51B7002051A30070D7808E475A4
:10007600F00112044EEF02043C0206347403D20768
:100086008003E4C207F5178B088A09890AE4F51884
:10009600F51AF51BE51860077F2012006180F575DB
:1000A60019FFC201C200C202C203C205C206C208CB
:1000B60012002FFF700D3007057F00120072AF1B74
:1000C600AE1A22B4255FC2D5C20412002FFF24D077
:1000D600B40A00501A75F00A781830D50508B6FF2C
:1000E6000106C6A426F620D5047002D20380D924C0
:1000F600CFB41A00EF5004C2E5D204020272D20154
:1001060080C6D20080C0D20280BCD2D580BAD205C9
:1001160080B47F201200612002077401B5180040E8
:10012600F1120026FF12006102009AD208D2068060
:1001360095120026FB120026FA120026F94A4B7089
:100146000679437A037BFF20022EE518602A7E009B
:100156008E8275830012040F60060EEE651970F02C
:10016600C2D5EBC0E0EAC0E0E9C0E0EE1202B9D0C9
:10017600E0F9D0E0FAD0E0FB1203F6FF60AAEBC08C
:10018600E0EAC0E0E9C0E0120061D0E02401F9D065
:10019600E03400FAD0E0FBE5190460DCD519D9801B
:1001A600877BFF7A0279B5D202809C79108002792A
:1001B60008C206C2088008D2D5790A8004790AC224
:1001C600D5E519047002F519E4FAFDFEFF120026C2
:1001D600FC7B08200113120026FD7B1030000A125A
:1001E6000026FE120026FF7B20EC3382D592D550E6
:1001F60013C3E43000069FFFE49EFEE42001039D46
:10020600FDE49CFCE4CBF8C201EC700CCFCECDCC67
:10021600E824F8F870F38017C3EF33FFEE33FEEDF2
:1002260033FDEC33FCEB33FB994002FB0FD8E9EBD3
:10023600300105F8D0E0C448B201C0E00AEC4D4EEA
:100246004F78207B0070C2EAB5190040BCC0E012AE
:1002560002BBD0F0D0E0200104C4C0E0C4B201C0AB
:10026600F012004AD0F0D5F0EB02009A12045E01BB
:10027600375301B15801084C01044201B54F01BD85
:0F0286004401BD49011D4301C35501A74601A70E
:100295004501A747036350010C2D01102E01332B97
:1002A500011423013120034C2A00CC480000012B06
:1002B5003F3F3F00790AA2D5200314300509B91044
:1002C500020404B9080104A2D52006025001042045
:1002D50002689202B518005034C0E07F203003193F
:1002E5007F30A20272067205500F120312C202C2BB
:1002F50006C205C2087F30800F300503E9C0E01251
:100305000061300503D0E0F9D0E0B518CC30051711
:100315007F30B9100C1200617F583004077F788058
:1003250003B908031200613002057F2D0200617FC9
:10033500202008F87F2B2006F322920280CF286E1A
:10034500756C6C2900D2011200263001F8C20178C3
:100355001830D50108F60200CC2D5043495812003B
:10036500262403B405004001E490035E9312005275
:0D037500743A120052D2037518040201B14F
:100490000206DBE493A3F8E493A34003F68001F2A1
:1004A00008DFF48029E493A3F85407240CC8C3336D
:1004B000C4540F4420C8834004F456800146F6DF3C
:1004C000E4800B010204081020408090059BE47E2C
:1004D000019360BCA3FF543F30E509541FFEE49331
:1004E000A360010ECF54C025E060A840B8E493A3F8
:1004F000FAE493A3F8E493A3C8C582C8CAC583CA23
:10050000F0A3C8C582C8CAC583CADFE9DEE780BEDA
:0105D4000026
:1003F600BB010689828A83E0225002E722BBFE0205
:09040600E32289828A83E4932237
:10040F00BB010CE58229F582E5833AF583E02250A2
:10041F0006E92582F8E622BBFE06E92582F8E222EC
:0D042F00E58229F582E5833AF583E4932206
:10043C00BB010689828A83F0225002F722BBFE019F
:02044C00F32299
:10044E00FAE6FB0808E6F925F0F618E6CA3AF622AF
:10045E00D083D082F8E4937012740193700DA3A32D
:10046E0093F8740193F5828883E473740293686041
:06047E00EFA3A3A380DF41
:10063400EFB40A07740D12063F740A309811A89992
:10064400B8130CC2983098FDA899C298B811F63026
:0706540099FDC299F59922FE
:00000001FF
