:1000CB0020200A00C000F900A400B00099009200A3
:1000DB008200F8008000900088008300C600A10019
:0700EB0086008E02080000F0
:10013F00758911758C4C758AD0D2AFD2A9D28C2209
:10009A00E4F52AF52B12013F75A0F0E52B25E024A3
:1000AA000AF808E6F580120111052BE52B70020506
:1000BA002AC39410E52A940040DEE4F52AF52B8041
:0100CA00D75E
:03000B0002012CC3
:10012C00C0E0758C4C758AD00509E509700205088C
:03013C00D0E032DE
:100111007FE87E037D6E7C00ED1D70011CED4C704F
:0A012100F7EF1F70011EEF4E70EAA9
:01012B0022B1
:1000F300D3EF9400EE940040147D6E7C00ED1D70F0
:0D010300011CED4C70F7EF1F70E61E80E34D
:0101100022CC
:0300000002000EED
:0C000E00787FE4F6D8FD75812B020055C8
:10001A0002009AE493A3F8E493A34003F68001F262
:10002A0008DFF48029E493A3F85407240CC8C333E7
:10003A00C4540F4420C8834004F456800146F6DFB6
:10004A00E4800B01020408102040809000CBE47E7B
:10005A00019360BCA3FF543F30E509541FFEE493AB
:10006A00A360010ECF54C025E060A840B8E493A372
:10007A00FAE493A3F8E493A3C8C582C8CAC583CA9D
:10008A00F0A3C8C582C8CAC583CADFE9DEE780BE55
:0100F200000D
:00000001FF
