:0403FA0002510000AC
:10051200758901758C4C758AD0D2AFD2A9C28C2252
:0C0522007F017E0012051212000E80FB0B
:03000B000204FFED
:1004FF00C0E00552E55270020551758C4C758AD0DB
:03050F00D0E03207
:1004CC007FE87E037D6E7C00ED1D70011CED4C7091
:0A04DC00F7EF1F70011EEF4E70EAEB
:0104E60022F3
:1004AE00D3EF9400EE940040147D6E7C00ED1D7031
:0D04BE00011CED4C70F7EF1F70E61E80E38F
:0104CB00220E
:10048F00D3EF9400EE94004015E4FDFC0DBD000188
:0E049F000CED641F4C70F5EF1F70E51E80E23F
:0104AD00222C
:0403FE0002530000A6
:040003007590FF22D3
:1002FA00120003E5902481604224C0602C24E0604F
:10030A001624F070487F147E001204AE2094083040
:10031A0094FD7E007F05227F147E001204AE209594
:10032A00083095FD7E007F06227F147E001204AEFF
:10033A002096083096FD7E007F07227F147E0012E9
:10034A0004AE2097083097FD7E007F0822E4FEFF66
:01035A002280
:1004E700E55445536003D28C22C28CE4F5F0120226
:0804F700DB758C4C758AD022E4
:0A035B008E4C8F4D8B4E8A4F895057
:100365001202FAEE7047EF24FA601714601E14604B
:10037500222403703812046C054DE54D702F054C91
:10038500802BE54D154D7025154C8021E4F54CF578
:100395004D801AE554455370047F0180027F007536
:1003A50053008F54AB4EAA4FA9501204E7AE4CAF81
:0103B5004DFA
:0103B6002224
:04000E008E388F3960
:100012007590FEAF90753A008F3BE53B54F064F06B
:1000220060677F0A7E001204AE7590FEAF90753A4B
:10003200008F3BE53B54F0FF64F0604DEF2490608D
:100042002424C0601824E0600C24F0701E753C006B
:10005200753D018016753C00753D02800E753C00B1
:10006200753D038006753C00753D04E53B54F06424
:10007200F06009AF90753A008F3B80EFAF3DAE3C28
:100082001203B712046C0201E97590FDAF90753A44
:10009200008F3BE53B54F064F060647F0A7E0012FF
:1000A20004AE7590FDAF90753A008F3BE53B54F07E
:1000B200FF64F0604AEF2490602424C0601824E0BA
:1000C200600C24F0701E753C00753D058016753C71
:1000D20000753D06800E753C00753D078006753C37
:1000E20000753D08E53B54F064F06009AF90753A45
:1000F200008F3B80EFAF3DAE3C1203B70201E975C2
:1001020090FBAF90753A008F3BE53B54F064F06092
:10011200637F0A7E001204AE7590FBAF90753A00C1
:100122008F3BE53B54F0FF64F06049EF249060247C
:1001320024C0601824E0600C24F0701E753C007529
:100142003D098016753C00753D0A800E753C0075B0
:100152003D0B8006753C00753D0CE53B54F064F0A8
:100162006009AF90753A008F3B80EFAF3DAE3C1215
:1001720003B780737590F7AF90753A008F3BE53BFC
:1001820054F064F060667F0A7E001204AE7590F748
:10019200AF90753A008F3BE53B54F0FF64F0604C42
:1001A200EF2490602424C0601824E0600C24F070D6
:1001B2001E753C00753D0D8016753C00753D0E8028
:1001C2000E753C00753D0F8006753C00753D10E5CF
:1001D2003B54F064F06009AF90753A008F3B80EFBA
:1001E200AF3DAE3C1203B7AE3CAF3D22AF39AE38A5
:0701F2001203B7AE38AF396C
:0101F90022E3
:1004020020200800C000F900A400B000990092006A
:100412008200F8008000900088008300C600A100DE
:1004220086008E102800FE00FD00FB00F700EF00A2
:05043200DF00BF007FA8
:0A0438008B448A4589468F828E832B
:100442007C007D0A1202868C4A8D4BAE83AF827C81
:10045200007D0A120286E54A854BF01202DBAB47A9
:0A046200AA48A949EE8FF00202DB60
:1003B700E4F53EF53FF540F541F5477548007549C9
:1003C70040FB7A00793E1204388529A0E54125E0F3
:1003D7002408F808E6F5807F0A7E001204AE852B14
:1003E700A0E53F25E02408F808E6F5807F0A7E00AF
:0303F7000204AE4F
:10046C00753E01753FF4B2B67F027E0012048FE533
:10047C003F153F7002153ED3E53F9400E53E9400D6
:02048C0050E43A
:01048E00224B
:030000000201FA00
:0C01FA00787FE4F6D8FD758154020241C4
:10028600BC000BBE0029EF8DF084FFADF022E4CC5C
:10029600F875F008EF2FFFEE33FEEC33FCEE9DEC25
:1002A600984005FCEE9DFE0FD5F0E9E4CEFD22ED6B
:1002B600F8F5F0EE8420D21CFEADF075F008EF2FB5
:1002C600FFED33FD4007985006D5F0F222C398FDA6
:0502D6000FD5F0EA2243
:1002DB00BB010A89828A83F0E5F0A3F0225006F76E
:0F02EB0009A7F01922BBFE06F3E5F009F319226B
:10020600020522E493A3F8E493A34003F68001F2E7
:1002160008DFF48029E493A3F85407240CC8C333F9
:10022600C4540F4420C8834004F456800146F6DFC8
:10023600E4800B01020408102040809003FAE47E5B
:10024600019360BCA3FF543F30E509541FFEE493BD
:10025600A360010ECF54C025E060A840B8E493A384
:10026600FAE493A3F8E493A3C8C582C8CAC583CAAF
:10027600F0A3C8C582C8CAC583CADFE9DEE780BE67
:0104370000C4
:00000001FF
