:07000300492067657420002D
:0800170002080000020B0000CA
:1000E200758921758DFD758BFDD28E758CEC758AA7
:0E00F20078D2A9C29FD29ED29CD2AFD2AC22AD
:1000B2001200E2E50AB401FBC2ACE4F50EE50E90D3
:1000C200000393F5993099FDC299050EE50EB40629
:1000D200EC850D993099FDC299D2ACE4F50A80D332
:03000B00020100EF
:10010000C0E0758CEC758A78050CE50C7002050B67
:0E0110006414450B7005F508750901D0E03246
:0300230002000ECA
:09000E00C29885990D750A0132B2
:03000000020026D5
:0C002600787FE4F6D8FD75810E02006DB5
:100032000200B2E493A3F8E493A34003F68001F232
:1000420008DFF48029E493A3F85407240CC8C333CF
:10005200C4540F4420C8834004F456800146F6DF9E
:10006200E4800B0102040810204080900017E47E17
:10007200019360BCA3FF543F30E509541FFEE49393
:10008200A360010ECF54C025E060A840B8E493A35A
:10009200FAE493A3F8E493A3C8C582C8CAC583CA85
:1000A200F0A3C8C582C8CAC583CADFE9DEE780BE3D
:01001F0000E0
:00000001FF
