:0E03DD005245442D434F44452054455354008F
:1002EC0012024E7F0A7E0012038E7F0112032FE44E
:1002FC00FF120404E4F516E5169003DD93FF600786
:10030C0012036F051680F0D2AFD2A8D2A9D288758D
:10031C008901C28CE4F590E51060FCE4F510639063
:03032C00FF80F45B
:030003000200D91F
:1000D900C0E0C0F0C083C082C0D075D000C000C0ED
:1000E90001C002C003C004C005C006C007C2A8758C
:1000F9008C00758A00D28C30B2FDC28CAF8CEFFEB9
:10010900AD8A7C00E42DF50BEC3EF50A758C007583
:100119008A00D28C20B2FDC28CAF8CEFFEAD8A7CF6
:1001290000E42DF509EC3EF508D3E50B9478E50AD2
:10013900941E4032E50B9460E50A94225028E509A3
:100149009410E508940E401EE509945CE5089412A4
:1001590050147B007A00790C12000650097B007A52
:1001690000790C1201F7D2A8751001D007D006D07A
:1001790005D004D003D002D001D000D0D0D082D095
:0601890083D0F0D0E0324B
:1003AC007FE87E037D6E7C00ED1D70011CED4C70B2
:0A03BC00F7EF1F70011EEF4E70EA0C
:0103C6002214
:10038E00D3EF9400EE940040147D6E7C00ED1D7052
:0D039E00011CED4C70F7EF1F70E61E80E3B0
:0103AB00222F
:10035000D3EF9400EE94004015E4FDFC0DBD0001C8
:0E0360000CED641F4C70F5EF1F70E51E80E27F
:01036E00226C
:0C03EB00E4FFE4FE0EBE21FC0FBF0AF68A
:0103F70022E3
:1003C700C2A0D2A1D2A200000000A2879201C2A2BD
:0503D700A201E433FF68
:0103DC0022FE
:10032F00AE071203C7EF640160F8C2A0C2A1C2A258
:10033F0000008E8000000000D2A200000000C2A2C8
:01034F00228B
:07040400EF4480FF02032F0B
:10036F00AE071203C7EF640160F8D2A0C2A1C2A208
:0F037F008E8000000000D2A200000000C2A22267
:10024E007F0F7E0012038E7F3812032F7F057E00F4
:10025E0012038E7F3812032F7F057E0012038E7FCE
:10026E003812032F7F057E0012038E7F0E12032F8E
:10027E007F057E0012038E7F0612032F7F057E0000
:0F028E0012038E7F0112032F7F057E0002038E65
:1001F7008B118A1289137F40120404AB11AA12A92A
:100207001312018FFF12029D7F2012036FAB11AAF9
:1002170012A9139000011201A8FF12029D7F20125C
:10022700036FAB11AA12A9139000021201A8FF12C3
:10023700029D7F2012036FAB11AA12A9139000032E
:070247001201A8FF02029D55
:060006008B118A12891320
:10000C00E4F514E4FDE515C313F515E4F58CF58A58
:10001C00D28C30B2FDC28CAF8CEFFEAC8AEC7A0085
:10002C002400F50BEA3EF50AE4F58CF58AD28C2017
:10003C00B2FDC28CAF8CEFFEAC8AEC7A002400F5DA
:10004C0009EA3EF508C3E50B9472E50A9401400BEE
:10005C00D3E50B9480E50A94024002C322D3E50950
:10006C0094A4E5089401400DE509946CE50894020C
:10007C00500353157FD3E5099414E5089405400DFE
:10008C00E5099408E508940750034315800DED64C9
:10009C00086003020011AB11AA12A9138514827512
:1000AC008300E5151201D50514E514640460030200
:1000BC00000FAB11AA12A9139000031201A8F4FFB0
:0C00CC009000021201A8B50702D322C365
:0100D8002205
:02029D008F14BC
:10029F008514155314F0E514C4540FF51453140FAB
:1002AF00E514D394095006E5142430800874F7251B
:1002BF0014F5142440FF12036F85151453140FE522
:1002CF0014D394095006E5142430800874F72514CC
:0D02DF00F5142440FF12036F7F4802036FE7
:030000000203F800
:0C03F800787FE4F6D8FD7581200202EC4D
:10018F00BB010689828A83E0225002E722BBFE026E
:09019F00E32289828A83E49322A1
:1001A800BB010CE58229F582E5833AF583E022500C
:1001B80006E92582F8E622BBFE06E92582F8E22256
:0D01C800E58229F582E5833AF583E4932270
:1001D500F8BB010DE58229F582E5833AF583E8F060
:1001E500225006E92582C8F622BBFE05E92582C80C
:0201F500F222F4
:00000001FF
